{
  "fileName": "Box2.sol",
  "contractName": "Box2",
  "source": "// contracts/Box2.sol\npragma solidity ^0.5.0;\n\nimport \"@openzeppelin/upgrades/contracts/Initializable.sol\";\n\n\ncontract Box2 is Initializable {\n    uint256 private value;\n\n    // Emitted when the stored value changes\n    event ValueChanged(uint256 newValue);\n\n    function initialize(uint256 initValue) public initializer {\n        value = initValue;\n    }\n\n    // Stores a new value in the contract\n    function store(uint256 newValue) public {\n        value = newValue;\n        emit ValueChanged(newValue);\n    }\n\n    // Reads the last stored value\n    function retrieve() public view returns (uint256) {\n        return value * 2;\n    }\n}\n",
  "sourcePath": "contracts/Box2.sol",
  "abi": [
    {
      "anonymous": false,
      "inputs": [
        {
          "indexed": false,
          "internalType": "uint256",
          "name": "newValue",
          "type": "uint256"
        }
      ],
      "name": "ValueChanged",
      "type": "event"
    },
    {
      "constant": false,
      "inputs": [
        {
          "internalType": "uint256",
          "name": "initValue",
          "type": "uint256"
        }
      ],
      "name": "initialize",
      "outputs": [],
      "payable": false,
      "stateMutability": "nonpayable",
      "type": "function"
    },
    {
      "constant": true,
      "inputs": [],
      "name": "retrieve",
      "outputs": [
        {
          "internalType": "uint256",
          "name": "",
          "type": "uint256"
        }
      ],
      "payable": false,
      "stateMutability": "view",
      "type": "function"
    },
    {
      "constant": false,
      "inputs": [
        {
          "internalType": "uint256",
          "name": "newValue",
          "type": "uint256"
        }
      ],
      "name": "store",
      "outputs": [],
      "payable": false,
      "stateMutability": "nonpayable",
      "type": "function"
    }
  ],
  "bytecode": "0x608060405234801561001057600080fd5b5061028f806100206000396000f3fe608060405234801561001057600080fd5b50600436106100415760003560e01c80632e64cec1146100465780636057361d14610064578063fe4b84df14610092575b600080fd5b61004e6100c0565b6040518082815260200191505060405180910390f35b6100906004803603602081101561007a57600080fd5b81019080803590602001909291905050506100cd565b005b6100be600480360360208110156100a857600080fd5b810190808035906020019092919050505061010e565b005b6000600260335402905090565b806033819055507f93fe6d397c74fdf1402a8b72e47b68512f0510d7b98a4bc4cbdf6ac7108b3c59816040518082815260200191505060405180910390a150565b600060019054906101000a900460ff168061012d575061012c610215565b5b8061014457506000809054906101000a900460ff16155b610199576040517f08c379a000000000000000000000000000000000000000000000000000000000815260040180806020018281038252602e81526020018061022d602e913960400191505060405180910390fd5b60008060019054906101000a900460ff1615905080156101e9576001600060016101000a81548160ff02191690831515021790555060016000806101000a81548160ff0219169083151502179055505b8160338190555080156102115760008060016101000a81548160ff0219169083151502179055505b5050565b6000803090506000813b905060008114925050509056fe436f6e747261637420696e7374616e63652068617320616c7265616479206265656e20696e697469616c697a6564a265627a7a72315820588d639df7f6597230757db4eee804d1ae2b97fcf7109a6afe3456c7513b5d9364736f6c63430005110032",
  "compiler": {
    "name": "solc",
    "version": "0.5.17+commit.d19bba13.Emscripten.clang",
    "optimizer": {
      "enabled": false,
      "runs": 200
    },
    "evmVersion": "petersburg"
  }
}